:100000000C94AB000C94C0000C94C0000C94C00085
:100010000C94C0000C94C0000C94C0000C94C00060
:100020000C94C0000C94C0000C94C0000C94C00050
:100030000C94C0000C94C0000C94C0000C94C00040
:100040000C94C0000C94C0000C94C0000C94C00030
:100050000C94C0006E616E00696E660000407A10FC
:10006000F35A00A0724E18090010A5D4E80000E869
:100070007648170000E40B54020000CA9A3B0000C7
:1000800000E1F505000080969800000040420F0056
:100090000000A08601000000102700000000E80317
:1000A000000000006400000000000A0000000000E2
:1000B0000100000000002C76D888DC674F0823DFA1
:1000C000C1DFAE59E1B1B796E5E3E453C63AE65174
:1000D000997696E8E6C28426EB898C9B62ED407C9B
:1000E0006FFCEFBC9C9F40F2BAA56FA5F490055A37
:1000F0002AF75C936B6CF9676DC11BFCE0E40D475C
:10010000FEF520E6B500D0ED902E0300943577057E
:100110000080841E080000204E0A000000C80C3336
:100120003333330F986E12831141EF8D2114893BC5
:10013000E65516CFFEE6DB18D1844B381BF77C1D45
:10014000901DA4BBE424203284725E228100C9F198
:1001500024ECA1E53D2711241FBECFE5D8E0DEBF8A
:10016000CDBF10E0A0E6B0E0E4E1FEE002C0059003
:100170000D92A837B107D9F70E94BF010C94080768
:100180000C940000813021F130F08230F1F18330A5
:1001900009F074C057C041110EC02AB381E090E04D
:1001A000AC0102C0440F551F6A95E2F7BA01609591
:1001B00062236ABB08952AB381E090E0AC0102C0DB
:1001C000440F551F6A95E2F7BA01622B6ABB089586
:1001D00041110EC027B381E090E0AC0102C0440F92
:1001E000551F6A95E2F7BA016095622367BB0895CF
:1001F00027B381E090E0AC0102C0440F551F6A951F
:10020000E2F7BA01622B67BB089541110EC024B317
:1002100081E090E0AC0102C0440F551F6A95E2F7FF
:10022000BA016095622364BB089524B381E090E035
:10023000AC0102C0440F551F6A95E2F7BA01622B68
:1002400064BB089541110EC021B381E090E0AC0180
:1002500002C0440F551F6A95E2F7BA016095622308
:1002600061BB089521B381E090E0AC0102C0440F6E
:10027000551F6A95E2F7BA01622B61BB0895813080
:1002800099F028F08230E9F08330A1F527C02BB334
:1002900081E090E0AC0102C0440F551F6A95E2F77F
:1002A000BA0162276BBB089528B381E090E0AC01EE
:1002B00002C0440F551F6A95E2F7BA01622768BB76
:1002C000089525B381E090E0AC0102C0440F551FB2
:1002D0006A95E2F7BA01622765BB089522B381E00F
:1002E00090E0AC0102C0440F551F6A95E2F7BA01D5
:1002F000622762BB089590BD89B9549A539A80B51C
:10030000866A80BD08955D9BFECF8CB90895CF931A
:10031000DF93EC018881882331F021960E948301CC
:1003200089918111FBCFDF91CF9108955F9BFECF23
:100330008CB1089541E062E082E00E94C20041E099
:1003400067E082E00E94C20041E063E083E00E9437
:10035000C2000895813049F018F0823079F40AC063
:1003600062E082E00E943F01089567E082E00E941F
:100370003F01089563E083E00E943F0108950E94D9
:100380009A0187E690E00E947B0180E690E00E945F
:1003900087010E9496018D3621F480E00E94AA0117
:1003A000F8CF8C36B1F781E00E94AA01F2CFA2E12A
:1003B000B0E0EDEDF1E00C9459057C011B016A0100
:1003C000FC0117821682838181FD03C06BC3650126
:1003D00005C088248394912C8C0E9D1EF701938177
:1003E000F10193FD859193FF81911F01882309F409
:1003F00055C3853239F493FD859193FF81911F0197
:10040000853231F4B70190E00E947E065601DFCFBD
:10041000712C612C20E02032A8F48B3261F028F49A
:10042000803251F0833271F40BC08D3239F0803359
:1004300049F4216028C02260246025C0286023C0C0
:10044000206121C027FD27C0382F30533A3078F47F
:1004500026FF06C0FAE07F9E300D1124732E13C0D4
:100460004AE0649E300D1124632E20620CC08E324F
:1004700021F426FD13C3206406C08C3611F42068D5
:1004800002C0883641F4F10193FD859193FF81917B
:100490001F018111C0CF982F9554933018F420611B
:1004A000805E06C0982F9556933008F0A4C12F7E29
:1004B00026FD02C016E0712EBFE35B2E5222853668
:1004C00019F4F0E45F2A07C0863619F440E8542A8C
:1004D00002C071107A9457FE07C05BE3571548F0CD
:1004E000472C439427E00DC087E0871530F0272D77
:1004F00007C027E0ACE34A2E04C027E0F7E07F2ED8
:10050000412C560194E0A90EB11CF6016081718165
:1005100082819381042DA4010E9490058C01498160
:100520004C8740FF02C043FF07C051FC08C052FE89
:1005300009C0E0E2DE2E07C07DE2D72E04C06BE2E8
:10054000D62E01C0D12C8C858C70A1F1DD2011F04C
:1005500084E001C083E0861510F0612C0BC0681A9E
:1005600053FC08C0B70180E290E00E947E066A94C6
:10057000C9F7F3CFDD2029F0B7018D2D90E00E945F
:100580007E065C8553FD03C008E510E00CC004E561
:1005900010E009C051108052B70190E00E947E0621
:1005A0000F5F1F4F02C080E15822F8018491811132
:1005B000F1CF71C257FE0EC0400E4C8544FF04C0FF
:1005C0008A81813309F44A9414144CF558E0541587
:1005D00048F12CC056FC2AC0872D90E08017910767
:1005E00044F00C3F8FEF180724F090E8592A01C01F
:1005F0007A94772049F0E2E0F0E0EC0FFD1FE70D80
:10060000F11D80818033A1F357FE10C0472C439425
:10061000872D90E00817190744F4701A07C0442486
:10062000439404C058E0452E01C0712C57FE07C00A
:10063000101611063CF498012F5F3F4F05C025E0CE
:1006400030E002C021E030E0DD2011F02F5F3F4FAD
:10065000772031F0472D50E04F5F5F4F240F351F5B
:10066000462D50E02417350714F4621A01C0612C9E
:10067000852D897049F406C0B70180E290E00E94A0
:100680007E066A946110F8CFDD2029F0B7018D2D28
:1006900090E00E947E0653FC09C006C0B70180E3CB
:1006A00090E00E947E066A946110F8CF57FE56C013
:1006B000680117FF02C0C12CD12C20E030E0A80156
:1006C000441951095E874D8728014C185D08480C74
:1006D000591C872D90E044275527481B590B588BF0
:1006E0004F875FEFC516D50649F4B7018EE290E05B
:1006F0002A8B398B0E947E0639892A890C151D05A3
:1007000054F04D855E854C155D052CF4F201E20F29
:10071000F31F818101C080E351E0C51AD1082F5F2A
:100720003F4F4F855889C416D5064CF0B70190E06D
:100730002A8B398B0E947E062A893989D2CFC0162E
:10074000D10649F49A81963328F4953321F45C85D7
:1007500054FD01C081E3B70190E04AC08A81813332
:1007600019F04C854F7E4C87B70190E00E947E06C1
:10077000711005C054FE16C085E490E015C0B701A5
:100780008EE290E00E947E0642E0D42EF401ED0D50
:10079000F11DD394B701808190E00E947E067A9487
:1007A000A9F7E8CF85E690E0B7010E947E0617FD25
:1007B00006C00115110541F45C8554FF05C0119573
:1007C000019511098DE201C08BE2B70190E00E9412
:1007D0007E0680E303C08F5F0A5011090A301105BD
:1007E000D4F7B70190E00E947E06B701C801C09619
:1007F0000E947E0650C1833631F0833781F0833505
:1008000009F05EC024C0560182E0A80EB11CF601BA
:1008100080818983CC24C394D12C840114C05601D7
:10082000F2E0AF0EB11CF6010081118126FF03C07A
:10083000672D70E002C06FEF7FEFC8012A8B0E9426
:1008400073066C012A899FE7592E522217C0560160
:10085000F2E0AF0EB11CF6010081118126FF03C04A
:10086000672D70E002C06FEF7FEFC8012A8B0E94F6
:1008700068066C012A8980E8582E522A53FC1CC055
:1008800006C0B70180E290E00E947E066A94862D41
:1008900090E0C816D906A8F30FC0F80157FC85915F
:1008A00057FE81918F01B70190E00E947E06611092
:1008B0006A94F1E0CF1AD108C114D10471F7EBC0EA
:1008C000843611F0893651F5560127FF09C044E0FE
:1008D000A40EB11CF60160817181828193810AC0EE
:1008E000F2E0AF0EB11CF60160817181882777FDBF
:1008F0008095982F122F1F7697FF08C090958095AE
:10090000709561957F4F8F4F9F4F10682AE030E0C0
:10091000A4010E94AA06D82ED81840C0122F8537ED
:1009200021F41F7E2AE030E01FC0197F8F36A1F02E
:1009300020F4883509F0B2C00BC0803721F0883729
:1009400009F0ACC001C0106114FF09C0146007C0F9
:1009500024FF08C0166006C028E030E005C020E192
:1009600030E002C020E132E0560117FF09C0F4E098
:10097000AF0EB11CF601608171818281938108C044
:10098000F2E0AF0EB11CF6016081718180E090E071
:10099000A4010E94AA06D82ED8181F7716FF0BC0F4
:1009A000212F2E7FD71450F414FF0AC012FD08C067
:1009B000212F2E7E05C00D2D212F03C00D2D01C02E
:1009C000072D24FF0CC0FE01ED0DF11D8081803349
:1009D00011F4297E08C022FF05C00E5F04C0822FDB
:1009E000867809F00F5F23FD14C020FF0FC07D2C17
:1009F000061560F4760C701A062D08C0B70180E267
:100A000090E02A8B0E947E060F5F2A890615B0F3BC
:100A100004C0061510F4601A01C0612C24FF12C036
:100A2000B70180E390E02A8B0E947E062A8922FF8C
:100A30001EC021FF03C088E590E002C088E790E077
:100A4000B7010CC0822F867891F021FD02C080E2B0
:100A500001C08BE227FD8DE2B70190E00E947E0687
:100A600006C0B70180E390E00E947E067A94D71416
:100A7000C0F3DA94F401ED0DF11DB701808190E02F
:100A80000E947E06D110F5CF06C0B70180E290E04B
:100A90000E947E066A946110F8CF99CCF7012681F6
:100AA000378102C02FEF3FEFC9016296E2E10C945B
:100AB00075052F923F924F925F926F927F928F9225
:100AC0009F92AF92BF92CF92DF92EF92FF920F93DD
:100AD0001F93CF93DF93CDB7DEB7CA1BDB0B0FB6E7
:100AE000F894DEBF0FBECDBF09942A8839884888A4
:100AF0005F846E847D848C849B84AA84B984C8843A
:100B0000DF80EE80FD800C811B81AA81B981CE0F30
:100B1000D11D0FB6F894DEBF0FBECDBFED01089515
:100B2000283008F027E03327DA01990F311D87FDBF
:100B3000916000966105710539F432602E5F3D9336
:100B400030E32A95E1F708959F3F30F08038710532
:100B5000610509F03C5F3C5F3D93913008F080688F
:100B6000911DDF93CF931F930F93FF92EF92192F55
:100B7000987F9695E92F96959695E90FFF27EA5469
:100B8000FF4F99273327EE24FF24A701E7010590A3
:100B90000894079428F4360FE71EF81E491F511DCC
:100BA000660F771F881F991F0694A1F70590079479
:100BB00028F4E70EF81E491F561FC11D770F881F26
:100BC000991F661F0694A1F70590079428F4F80E64
:100BD000491F561FC71FD11D880F991F661F771FFA
:100BE0000694A1F70590079420F4490F561FC71FDC
:100BF000D81F990F661F771F881F0694A9F7849145
:100C00001095177041F0D695C79557954795F7946D
:100C1000E7941A95C1F7ECE5F0E06894159015910A
:100C200035916591959105907FE27395E118F10AF0
:100C3000430B560BC90BD009C0F7E10CF11E431F43
:100C4000561FC91FD01D7EF4703311F48A95E6CF6C
:100C5000E894015030F0080F0AF40027021708F456
:100C6000202F2395022F7A3328F079E37D932A955C
:100C7000E9F710C07D932A9589F6069497956795B4
:100C8000379517951794E118F10A430B560BC90BCA
:100C9000D00998F023957E9173957A3308F070E32C
:100CA0007C932013B8F77E9170617D9330F083952B
:100CB00071E37D9370E32A95E1F71124EF90FF90A3
:100CC0000F911F91CF91DF91992787FD90950895FE
:100CD000FC010590615070400110D8F78095909507
:100CE0008E0F9F1F0895FC0161507040019001100C
:100CF000D8F7809590958E0F9F1F08950F931F939F
:100D0000CF93DF938C01EB018B8181FD03C00FEF4B
:100D10001FEF1AC082FF0DC02E813F818C819D8103
:100D20002817390764F4E881F9810193F983E8838E
:100D300006C0E885F985802F0995892B41F78E81BA
:100D40009F8101969F838E83C801DF91CF911F9170
:100D50000F910895FA01AA27283051F1203181F12D
:100D6000E8946F936E7F6E5F7F4F8F4F9F4FAF4FB3
:100D7000B1E03ED0B4E03CD0670F781F891F9A1FC6
:100D8000A11D680F791F8A1F911DA11D6A0F711D7A
:100D9000811D911DA11D20D009F468943F912AE086
:100DA000269F11243019305D3193DEF6CF0108956E
:100DB000462F4770405D4193B3E00FD0C9F7F6CF9F
:100DC000462F4F70405D4A3318F0495D31FD405267
:100DD000419302D0A9F7EACFB4E0A69597958795FD
:100DE00077956795BA95C9F70097610571050895DC
:100DF0009B01AC010A2E0694579547953795279588
:100E0000BA95C9F7620F731F841F951FA01D08951F
:040E1000F894FFCF84
:100E140048656C6C6F20554152542E2E2E2E2E2E6A
:080E24002E2E2E2E2E2E2E0084
:00000001FF
