S01C0000416D69745F4C31315F496E746572666163696E672E73726563A7
S11300000C942A000C9447000C9447000C9447006D
S11300100C9447000C9447000C9447000C94470040
S11300200C9447000C9447000C9447000C942B014B
S11300300C9447000C9447000C9447000C94470020
S11300400C9447000C9447000C9447000C94470010
S11300500C94470011241FBECFE5D8E0DEBFCDBF0E
S113006010E0A0E6B0E0E8EDF2E002C005900D92E9
S1130070A036B107D9F720E0A0E6B0E001C01D9298
S1130080A136B207E1F70E945D010C946A010C9459
S11300900000813021F130F08230F1F1833009F039
S11300A074C057C041110EC02AB381E090E0AC0186
S11300B002C0440F551F6A95E2F7BA0160956223A6
S11300C06ABB08952AB381E090E0AC0102C0440FFA
S11300D0551F6A95E2F7BA01622B6ABB0895411174
S11300E00EC027B381E090E0AC0102C0440F551F5D
S11300F06A95E2F7BA016095622367BB089527B356
S113010081E090E0AC0102C0440F551F6A95E2F70C
S1130110BA01622B67BB089541110EC024B381E07C
S113012090E0AC0102C0440F551F6A95E2F7BA0192
S11301306095622364BB089524B381E090E0AC0130
S113014002C0440F551F6A95E2F7BA01622B64BBE3
S1130150089541110EC021B381E090E0AC0102C0CA
S1130160440F551F6A95E2F7BA016095622361BB9B
S1130170089521B381E090E0AC0102C0440F551F03
S11301806A95E2F7BA01622B61BB0895813099F058
S113019028F08230E9F08330A1F527C02BB381E049
S11301A090E0AC0102C0440F551F6A95E2F7BA0112
S11301B062276BBB089528B381E090E0AC0102C0D4
S11301C0440F551F6A95E2F7BA01622768BB089588
S11301D025B381E090E0AC0102C0440F551F6A953D
S11301E0E2F7BA01622765BB089522B381E090E08B
S11301F0AC0102C0440F551F6A95E2F7BA016227A9
S113020062BB08958FB780688FBF089541E062E0B4
S113021082E00E94490041E067E082E00E944900D8
S113022041E063E083E00E9449000895813049F091
S113023018F0823079F40AC062E082E00E94C600BD
S1130240089567E082E00E94C600089563E083E0B9
S11302500E94C60008951F920F920FB60F921124A8
S11302602F933F934F935F936F937F938F939F93BA
S1130270AF93BF93EF93FF93809160008F5F809360
S1130280600080916000843629F480E00E941601A9
S11302901092600084E682BFFF91EF91BF91AF910D
S11302A09F918F917F916F915F914F913F912F918A
S11302B00F900FBE0F901F9018950E9406010E9488
S11302C0020184E682BF89B7816089BF83B78560F4
S10B02D083BFFFCFF894FFCFB8
S9030000FC
